:020000040800F2
:1000000000000120393300089120000893200008E7
:1000100095200008972000089920000800000000A3
:100020000000000000000000000000009B2000080D
:100030009D200008000000009F200008A12000086B
:1000400089330008893300088933000889330008A0
:100050008933000889330008893300088933000890
:100060008933000889330008893300088933000880
:100070008933000889330008893300088933000870
:100080008933000889330008893300080000000024
:10009000000000000000000000000000893300089C
:1000A0008933000889330008893300088933000840
:1000B0008933000889330008893300088933000830
:1000C0008933000889330008893300088933000820
:1000D00089330008893300088933000800000000D4
:1000E00089330008893300088933000800000000C4
:1000F000000000000000000000000000893300083C
:1001000000000000893300088933000889330008A3
:1001100000000000000000000000000000000000DF
:1001200089330008893300088933000889330008BF
:1001300089330008000000000000000000000000FB
:1001400000000000000000000000000089330008EB
:10015000893300088933000889330008893300088F
:100160008933000889330008000000000000000007
:10017000000000000000000000000000000000007F
:1001800000000000893300080000000000000000AB
:0401900089330008A7
:1001C0000348044B834202D0034B03B118477047E6
:1001D0009C0000209C00002000000000054806490B
:1001E0000B1AD90F01EBA301491002D0034B03B145
:1001F000184770479C0000209C0000200000000071
:1002000010B5064C237843B9FFF7DAFF044B13B15E
:100210000448AFF300800123237010BD9C00002030
:10022000000000008C33000808B5044B1BB10449E2
:100230000448AFF30080BDE80840CFE700000000AD
:10024000A00000208C330008014B1868704700BFE5
:100250000000002070B50D4E0D4D761BB61006D077
:10026000002455F8043B01349847A642F9D1094EC1
:10027000094D761B03F08AF8B61006D0002455F815
:10028000043B01349847A642F9D170BDD83A000822
:10029000D83A0008DC3A0008D83A0008830730B59D
:1002A00048D0541E002A3FD0CAB2034601E0013CA8
:1002B0003AD303F8012B9D07F9D1032C2DD9CDB2E8
:1002C00045EA05250F2C45EA054536D9A4F110026B
:1002D00022F00F0C03F1200EE6444FEA121C03F14A
:1002E000100242E9045542E9025510327245F8D134
:1002F0000CF1010214F00C0F03EB021204F00F0CCE
:1003000013D0ACF1040323F003030433134442F885
:10031000045B9342FBD10CF003042CB1CAB21C4421
:1003200003F8012B9C42FBD130BD64461346002CE0
:10033000F4D1F9E703461446BFE71A46A446E0E7BE
:1003400090F800F06DE9024520F007016FF0000C15
:1003500010F0070491F820F040F049804FF00004BD
:100360006FF00700D1E9002391F840F000F1080098
:1003700082FA4CF2A4FA8CF283FA4CF3A2FA8CF3D0
:100380004BBBD1E9022382FA4CF200F10800A4FA37
:100390008CF283FA4CF3A2FA8CF3E3B9D1E904238B
:1003A00082FA4CF200F10800A4FA8CF283FA4CF3C2
:1003B000A2FA8CF37BB9D1E9062301F1200182FA7C
:1003C0004CF200F10800A4FA8CF283FA4CF3A2FA82
:1003D0008CF3002BC6D0002A04BF04301A4612BA90
:1003E000B2FA82F2FDE8024500EBD2007047D1E993
:1003F000002304F00305C4F100004FEAC50514F022
:10040000040F91F840F00CFA05F562EA05021CBFF2
:1004100063EA050362464FF00004A9E770B50B4E8E
:100420009AB004466FF00045CDE9044513460094A8
:100430000A463068064C02956946039400F0FCF8C1
:10044000009B00221A701AB070BD00BF000000208F
:100450000802FFFF10B59AB06FF00044CDE9041414
:10046000009102946946044C039400F0E5F8009B67
:1004700000221A701AB010BD0802FFFF2DE9F047E4
:100480008F689F420C461D46164638D8824688899A
:1004900010F4906F0ED108683D462A46314600F0B0
:1004A000C1FCA2682368D21B2B44A26023600020F9
:1004B000BDE8F0874B69096903EB4308236808EB43
:1004C000D878A3EB01096B1C4FEA68084B444345FD
:1004D000424684BF98464246430513D511465046CE
:1004E00000F07EFD074608B321694A4600F000FC93
:1004F000A38923F4906343F08003A38107E0086895
:100500001F46CAE7504600F0C5FD074650B107EB4D
:100510000900A8EB09032761C4F81480A3602060D8
:100520002F46BAE72169504600F0F8FC0C23CAF8C0
:100530000030A38943F040034FF0FF30A381B7E7B9
:100540002DE9F04F936883B09146002B6ED0176869
:100550008D6880460C460868083744E0A38913F488
:10056000906F2ED0D4E90415A0EB010A05EB4505E8
:1005700005EBD5750AEB06006D100130A8422A463E
:1005800084BF05462A465B0537D51146404600F034
:1005900027FD00283BD052462169019000F0A8FBBE
:1005A000A289019B22F4906242F08002A281A5EB15
:1005B0000A0203EB0A006561A260236120603546F0
:1005C000B2465946524600F02DFCA068D9F80810F2
:1005D0002368451B8E1B03EB0A00A5602060C9F849
:1005E00008601EB3083757E902B6002EFAD0B542AC
:1005F000AA46B3D93546B246E3E7404600F04AFD85
:1006000003460028D3D12169404600F087FC0C2323
:10061000C8F80030A389002243F040034FF0FF30B8
:10062000A381C9E9012203B0BDE8F08F0020C9F819
:10063000040003B0BDE8F08F2DE9F04F92468A899F
:1006400015069DB0884681461C4603D50A69002AD6
:1006500000F0EF80002209929AF800307E4D03945A
:1006600020228DF8292030228DF82A200126002B07
:1006700072D0544603E014F8013F002B76D0252BAE
:10068000F9D1B4EB0A0B74D12278002A64D000238C
:100690004FF0FF32CDE90523049307938DF85330D3
:1006A0001A93013404E0049A06FA03F31343049303
:1006B000A246052214F8011B284600F0C9FA431B84
:1006C0000028F0D1049BD80644BF20228DF8532087
:1006D00019079AF8001044BF2B228DF853202A29BD
:1006E00054D1039A11680432002903927CDB0791EC
:1006F0009AF801100AF1010A2E2959D0574C032209
:10070000204600F0A5FA40B1049B001B402404FAE7
:1007100000F0034304930AF1010A1AF8011B504840
:100720008DF82810062200F093FA002862D04D4B75
:10073000002B52D003AA00924B4B424604A94846D4
:10074000AFF3008007467A1C06D0099B3B4409930F
:100750009AF80030002B8CD1B8F80C305B0654BFEF
:1007600009984FF0FF301DB0BDE8F08FB4EB0A0BD5
:10077000F2D05B46524641464846FFF77FFE0130C5
:10078000EAD0099B22785B4409937EE7A1F130020D
:10079000092AB1D8079B1AF8011F03EB830302EB68
:1007A0004303A1F13002092AF5D92E290793A5D1D7
:1007B0009AF801102A2927D1039B9AF802101A6887
:1007C00005920433002A0AF102000393B8BF4FF0E8
:1007D000FF338246B8BF059390E7039B073323F0AE
:1007E000070308330393B0E7494243F0020307913C
:1007F00004937DE703AA00921B4B424604A9484696
:1008000000F0CAF807469EE7A1F130020023092A4A
:1008100005930AF1010A3FF671AF1AF8011F03EBC5
:10082000830302EB4303A1F13002092AF5D90593B2
:1008300064E7402100F0D4FBC8F80000C8F81000BD
:1008400018B14022C8F8142004E70C23C9F800307E
:100850004FF0FF3087E700BF943A00089C3A000849
:10086000A03A0008000000007D0400082DE9F84FC0
:1008700092461F460A698B68DDF828909A42B8BFF5
:100880001A46CAF8002091F843300C46064613B1C8
:100890000132CAF80020226891065DD5DAF80030EE
:1008A0000233CAF80030226812F0060F11461ED13A
:1008B000E168CB1A002BD8BF114618DD04F1190BE3
:1008C0004FF0000805E0E568DAF80030ED1A45451C
:1008D0000CDD01235A4639463046C847013008F13D
:1008E0000108F0D14FF0FF30BDE8F88F216894F88F
:1008F0004330003B18BF01238A060AD5E1185A1C71
:10090000302081F84300224494F8451082F84310C7
:10091000023304F1430239463046C8470130E1D082
:10092000236803F00603042B1DD0A36822699342B9
:1009300025DD4FF000089B1A98441A34002501E089
:1009400045451CDA0123224639463046C847013066
:1009500005F10105F4D1C5E712F0060F12D0003BF6
:1009600018BF0123D5E7DAF80030E1682269C91A17
:10097000A368934221EAE178DDDC0029DDDC002078
:10098000BDE8F88FE168DAF80030CB1A002BD8BF49
:10099000114693DCABE700BF2DE9F0470C4684B06D
:1009A0009046227E0C990746994604F14300002A9E
:1009B00033D0A2F15803DDB2202D67D8202B65D8A3
:1009C000DFE813F0DE00640064006400640064008B
:1009D00064006400640064006400A3006E006400AE
:1009E0006400640064006E006400640064006400DD
:1009F00021007F00C00064006400AE0064007F003E
:100A000064006400E50023681A0640F104810B6865
:100A100062691D1D0D601B681A60002382462361F8
:100A2000CDF80090434603AA21463846FFF71EFF43
:100A3000013020D02369524641463846C84701302C
:100A400019D02368E068039E9B0719D5831B002BF0
:100A500016DD04F1190A002504E0E068039E831BFB
:100A6000AB420DDD0123524641463846C8470130AE
:100A700005F10105F1D14FF0FF3004B0BDE8F0877A
:100A8000B042B8BF304604B0BDE8F087012384F817
:100A90004220236104F1420A002384F84330BFE777
:100AA00023681A0602D45E0600F1C1800D682A6828
:100AB00004350D601546002A6BDBDFF884C10A2679
:100AC00010E023681D0640F19C800B681D1D0D6021
:100AD0001D68DFF86CC16F2A0CBF08260A260023A8
:100AE00084F843306268A260002A7FDB236823F029
:100AF00004032360002D5BD1002A79D18246082EA1
:100B000065D0A0EB0A0020618AE70B680122186813
:100B100004330B6004F1420A84F842002261BBE70F
:100B20000B686268181D0860D3F800A000215046C9
:100B300000F08EF8002800F08180A0EB0A006060D1
:100B40002061A9E7236843F0200323607822DFF8BF
:100B5000F4C084F845200A68151D0D601D0643D4B5
:100B6000590641D51588DE0744BF43F020032360B2
:100B7000002D44D1236823F0200323601026AEE724
:100B8000582384F84530DFF8B8C02368E3E72368CA
:100B9000DCE76268A2602D21002AC5F1000584F817
:100BA000431002DB23F004032360DFF894C00A261D
:100BB0008246B5FBF6F306FB13512A461CF80110DA
:100BC0000AF8011DB2421D46F3D2082E99D12368BE
:100BD000D90796D5626823699A4292DC30230AF8D5
:100BE000013C0AF1FF3A8CE71568BCE7002DDFD124
:100BF0009CF8003084F8423004F1420A7FE7102666
:100C00006DE713F0400F0B6803F104050D600CBF96
:100C10001D681D885DE713F0400F0B68626903F1E2
:100C200004050D601B6814BF1A801A60F5E60A6897
:100C3000B2F9005004320A602A463CE760687FE758
:100C4000A83A0008BC3A00080000000000000000BC
:100C500001F0FF01102A2BDB10F0070F08D010F86D
:100C6000013B013A8B422DD010F0070F42B3F6D171
:100C7000F0B441EA012141EA014122F007047FF08A
:100C800000070023F0E80256083C85EA010586EAE1
:100C9000010685FA47F5A3FA87F586FA47F6A5FA1D
:100CA00087F68EB9EED1F0BC01F0FF0102F0070229
:100CB00032B110F8013B013A83EA010313B1F8D1D4
:100CC0000020704701387047002D06BF35460338B5
:100CD000073815F0010F07D1013015F4807F02BFEE
:100CE000013015F4C03F0130F0BC0138704700BF3F
:100CF000844641EA000313F003036DD1403A41D327
:100D000051F8043B40F8043B51F8043B40F8043BE5
:100D100051F8043B40F8043B51F8043B40F8043BD5
:100D200051F8043B40F8043B51F8043B40F8043BC5
:100D300051F8043B40F8043B51F8043B40F8043BB5
:100D400051F8043B40F8043B51F8043B40F8043BA5
:100D500051F8043B40F8043B51F8043B40F8043B95
:100D600051F8043B40F8043B51F8043B40F8043B85
:100D700051F8043B40F8043B51F8043B40F8043B75
:100D8000403ABDD2303211D351F8043B40F8043B15
:100D900051F8043B40F8043B51F8043B40F8043B55
:100DA00051F8043B40F8043B103AEDD20C3205D325
:100DB00051F8043B40F8043B043AF9D2043208D01D
:100DC000D2071CBF11F8013B00F8013B01D30B888F
:100DD00003806046704700BF082A13D38B078DD06D
:100DE00010F003038AD0C3F10403D21ADB071CBF3F
:100DF00011F8013B00F8013B80D331F8023B20F8A9
:100E0000023B7BE7043AD9D3013A11F8013B00F8E1
:100E1000013BF9D20B7803704B7843708B78837069
:100E20006046704788420DD98B1883420AD900EB7F
:100E3000020CBAB1624613F801CD02F801CD994215
:100E4000F9D170470F2A0ED8034602F1FF3C4AB190
:100E50000CF1010C013B8C4411F8012B03F8012F1C
:100E60006145F9D1704740EA01039B0750D1A2F1D7
:100E7000100370B501F1200C23F00F0501F1100EE5
:100E800000F11004AC441B095EF8105C44F8105CDF
:100E90005EF80C5C44F80C5C5EF8085C44F8085C96
:100EA0005EF8045C44F8045C0EF1100EE64504F1B3
:100EB0001004E9D1013312F00C0F01EB031102F021
:100EC0000F0400EB031327D0043C24F003064FEA81
:100ED000940C1E441C1F8E465EF8045B44F8045FAD
:100EE000B442F9D10CF1010402F0030203EB8403D4
:100EF00001EB840102F1FF3C4AB10CF1010C013B12
:100F00008C4411F8012B03F8012F6145F9D170BD14
:100F100002F1FF3C03469BE72246EBE7002958D04D
:100F200030B551F8043C83B0002BA1F10404B8BFE4
:100F3000E418019000F0E8F8284A0198136833B1EA
:100F4000A3420DD9216804EB010C63452FD06360E7
:100F5000146003B0BDE8304000F0D8B8A34210D808
:100F60001A465B68002BF9D1116802EB010C64454D
:100F700019D02FD36360546003B0BDE8304000F057
:100F8000C5B8116802EB010CA44516D022D821681F
:100F900004EB010C6345EDD11D685B682944C4E98D
:100FA00000135460D5E7236819441160D1E71D6828
:100FB0005B682944C4E90013CAE724682144541833
:100FC000A3421160C5D1D3E900432144C2E9001313
:100FD000BFE770470C230360BBE700BFB8000020E9
:100FE000F8B5CD1C25F0030508350C2D38BF0C25B0
:100FF000002D064623DBA94221D8254F00F084F8B6
:101000003A6822B3144603E063682246FBB11C46EB
:1010100023685B1BF8D40B2B15D8636894420CBF74
:101020003B605360304600F071F804F10B00231D63
:1010300020F00700C21A01D01B1AA350F8BD0C23E0
:1010400033600020F8BD23601C442560EAE779681E
:10105000C9B12946304600F045F8431C0CD0C41CE9
:1010600024F00304A04205D0211A304600F03AF8DB
:10107000013001D02560D5E70C233046336000F005
:1010800045F80020F8BD304600F02CF87860E0E725
:10109000B8000020F8B51446F9B1CAB106460D46AD
:1010A00000F036F8A04202D32F463846F8BD21465C
:1010B0003046FFF795FF07460028F6D0224629461E
:1010C000FFF716FE30462946FFF728FF3846F8BDE1
:1010D0002746FFF723FF3846F8BDBDE8F840114624
:1010E000FFF77EBF38B5074D0022044608462A6048
:1010F00000F0DAFF431C00D038BD2B68002BFBD07A
:10110000236038BDC0000020704700BF704700BF9B
:1011100051F8040C0028A0F10400BCBF0B58C01803
:10112000704700BF53B94AB9002908BF00281CBF47
:101130004FF0FF314FF0FF3000F074B9ADF1080C03
:101140006DE904CE00F006F8DDF804E0DDE90223E5
:1011500004B070472DE9F047089D04468E46002BE9
:101160004DD18A42944669D9B2FA82F252B101FA5B
:1011700002F3C2F1200120FA01F10CFA02FC41EA6B
:10118000030E94404FEA1C48210CBEFBF8F61FFAF0
:101190008CF708FB16E341EA034306FB07F199428B
:1011A0000AD91CEB030306F1FF3080F01F8199423E
:1011B00040F21C81023E63445B1AA4B2B3FBF8F018
:1011C00008FB103344EA034400FB07F7A7420AD99F
:1011D0001CEB040400F1FF3380F00A81A74240F2C7
:1011E00007816444023840EA0640E41B00261DB132
:1011F000D4400023C5E900433146BDE8F0878B4267
:1012000009D9002D00F0EF800026C5E90001304625
:101210003146BDE8F087B3FA83F6002E4AD18B42FF
:1012200002D3824200F2F980841A61EB03030120A9
:101230009E46002DE0D0C5E9004EDDE702B9FFDE95
:10124000B2FA82F2002A40F09280A1EB0C014FEA40
:101250001C471FFA8CFE0126200CB1FBF7F307FB9D
:10126000131140EA01410EFB03F0884208D91CEB40
:10127000010103F1FF3802D2884200F2CB804346DD
:10128000091AA4B2B1FBF7F007FB101144EA0144BC
:101290000EFB00FEA64508D91CEB040400F1FF314B
:1012A00002D2A64500F2BB800846A4EB0E0440EA39
:1012B00003409CE7C6F12007B34022FA07FC4CEA42
:1012C000030C20FA07F401FA06F31C43F9404FEA35
:1012D0001C4900FA06F3B1FBF9F8200C1FFA8CFE4A
:1012E00009FB181140EA014108FB0EF0884202FA9E
:1012F00006F20BD91CEB010108F1FF3A80F088805F
:10130000884240F28580A8F102086144091AA4B21B
:10131000B1FBF9F009FB101144EA014100FB0EFE9C
:101320008E4508D91CEB010100F1FF346CD28E45CB
:101330006AD90238614440EA0840A0FB0294A1EB5C
:101340000E01A142C846A64656D353D05DB1B3EBB9
:10135000080261EB0E0101FA07F722FA06F3F140E9
:101360001F43C5E9007100263146BDE8F087C2F190
:101370002003D8400CFA02FC21FA03F39140014308
:101380004FEA1C471FFA8CFEB3FBF7F007FB103641
:101390000B0C43EA064300FB0EF69E4204FA02F4ED
:1013A00008D91CEB030300F1FF382FD29E422DD940
:1013B000023863449B1B89B2B3FBF7F607FB163375
:1013C00041EA034106FB0EF38B4208D91CEB0101F5
:1013D00006F1FF3816D28B4214D9023E6144C91A75
:1013E00046EA004638E72E46284605E70646E3E685
:1013F0001846F8E64B45A9D2B9EB020864EB0C0E8F
:101400000138A3E74646EAE7204694E74046D1E79D
:10141000D0467BE7023B614432E7304609E764444B
:10142000023842E7704700BF70B588B000240394CB
:10143000049405940694079400941C4B1A6B42F094
:1014400004021A631A6B02F004020092009A0194DB
:101450001A6B42F080021A631A6B02F0800201924A
:10146000019A02941A6B42F001021A631B6B03F09B
:1014700001030293029B0E4E22464FF40051304668
:1014800001F035FA4FF400530393012504950594B8
:10149000069403A9304601F043F90395049405949A
:1014A00003A9044801F03CF908B070BD00380240BF
:1014B000000802400000024008B50121034801F085
:1014C0000FFA012814BF0020012008BD00000240CF
:1014D0000FB400B597B018AA52F8041B019202A8E5
:1014E000FEF79CFF02A8FEF72BFF4FF0FF3382B2FE
:1014F00002A9044801F051FE17B05DF804EB04B0F6
:10150000704700BF9801002000B583B00F48FFF777
:10151000DFFF4FF0FF3301220DF107010C4801F00E
:10152000A2FE50B99DF80730592B0DD0792B09D068
:101530000020C0B203B05DF804FB0648FFF7C8FF07
:101540000020F7E70120F4E70120F2E7A4330008C8
:1015500098010020E433000810B51A48FFF7B8FFDF
:10156000194B1B78012B06D0022B17D01748FFF719
:10157000AFFFA04710BD1648FFF7AAFF154B18682C
:1015800072B64FF0E022002111615161916180F348
:10159000088802F5506293605C68EAE70E48FFF73E
:1015A00097FF0E4B186872B64FF0E02200211161D0
:1015B0005161916180F3088802F5506293605C6824
:1015C000D7E700BF0C340008C400002090340008A6
:1015D0003834000800C00008643400080000020825
:1015E00000B583B07F238DF807304FF0FF33012221
:1015F0000DF10701024801F0D0FD03B05DF804FBD6
:10160000E001002000B583B0A5238DF804308DF8EB
:1016100005004FF0FF33022201A9034801F0BDFD90
:1016200003B05DF804FB00BFE0010020F0B583B01B
:1016300006460D4617460024FF2007E0335D019360
:10164000012201A9094800F030FE0134AC42F5D373
:10165000064B1A68936843F001039360B84202D0C6
:10166000012003B0F0BD0020FBE700BF9001002087
:1016700008B54FF0FF338AB20146024801F08DFDF4
:1016800008BD00BFE001002010B504460D48FFF77B
:101690001FFF2178033962582046FFF7C7FF50B972
:1016A0000948FFF715FF0920FFF7ACFF092107489C
:1016B000FFF7DEFF10BD0648FFF70AFFFFF790FFB8
:1016C000F8E700BFB8340008E834000864000020E0
:1016D0000C3500081020704770B582B004460578BC
:1016E000033D46591248FFF7F3FE3246294620468D
:1016F000FFF79CFFA8B90F48FFF7EAFE0120FFF7AC
:1017000081FFFFF7E7FF01468DF8070002460A4810
:10171000FFF7DEFE01210DF10700FFF7A9FF02B080
:1017200070BD0648FFF7D4FEFFF75AFFF7E700BF8A
:101730002C3500085C35000884350008A435000805
:10174000024B1868C0F30B00704700BF002004E094
:1017500010B582B004461448FFF7BAFE0023ADF876
:1017600006302178033962582046FFF75FFFA8B999
:101770000E48FFF7ADFE0220FFF744FFFFF7E0FF42
:101780000146ADF8060002460948FFF7A1FE022116
:101790000DF10600FFF76CFF02B010BD0548FFF722
:1017A00097FEFFF71DFFF7E7C8350008E83400088B
:1017B000F43500080C35000800B589B001A800F028
:1017C000F9FE9DF8140009B05DF804FB10B582B075
:1017D00004461448FFF77CFE00238DF8073021787B
:1017E000033962582046FFF721FFA8B90E48FFF7DA
:1017F0006FFE0120FFF706FFFFF7DEFF01468DF8C1
:10180000070002460948FFF763FE01210DF10700BA
:10181000FFF72EFF02B010BD0548FFF759FEFFF796
:10182000DFFEF7E718360008E83400084436000801
:101830000C35000800F16043B3F5802F06D900F1A4
:101840007840B0F5802F03D2002070470020704709
:101850000120704710B586B0052922D8831FDBB25E
:10186000F82B03D80424204606B010BDFF2815D05D
:10187000C0F10603DBB2994200D80B460022019268
:101880000390049300F0D0FD02230593694601A85C
:1018900000F0FCFE044600F0DFFDE4E701230193C5
:1018A000F0E70424DFE7000030B583B004460023EE
:1018B0008DF807301F48FFF70BFE1F4801780339EA
:1018C0004258FFF7B3FE78BB1C48FFF701FE01202A
:1018D000FFF798FEA578E478224629461848FFF7D6
:1018E000F7FD01224FF48041164801F000F8FF2D6A
:1018F00017D02146E8B2FFF7ADFF8DF807000022B0
:101900004FF480410F4800F0F2FF9DF807100E4899
:10191000FFF7DEFD01210DF10700FFF7A9FE03B07F
:1019200030BD4FF0FF35E4E70848FFF7D1FDFFF782
:1019300057FEF4E768360008C80000209C3600080F
:10194000C036000800040240F43600081C370008C6
:101950002DE9F84311F0030833D105460F4616462A
:1019600012B94FF000092EE000F05EFD44464FF042
:10197000000916E04FEAC30CFF2000FA0CF022EA3F
:101980000002E118695C01FA0CF10A430133734566
:10199000F0D30023E119022000F098FD814668B9D8
:1019A0000434B4420AD2A6EB040EBEF1040F28BFE1
:1019B0004FF0040E43464FF0FF32E8E700F04CFDD5
:1019C00001E04FF001094846BDE8F883F0B583B067
:1019D00004462948FFF77CFD00238DF80730A679DF
:1019E000D4F802502178033962582046FFF71EFED2
:1019F00000283AD12148FFF76BFD0120FFF702FED6
:101A000029461F48FFF764FD2846FFF713FF08BB70
:101A10001C48FFF75DFD1C4F01224FF48041384602
:101A200000F065FF32462946E01DFFF791FF8DF873
:101A3000070000224FF48041384600F058FF9DF81F
:101A400007101248FFF744FD01210DF10700FFF7D1
:101A50000FFE0FE00E48FFF73BFD01218DF8071048
:101A60000DF10700FFF704FE04E00A48FFF730FD20
:101A7000FFF7B6FD03B0F0BD40370008E8340008BA
:101A8000703700089837000800040240C03700088B
:101A9000E43700080C35000870B588B0054600240E
:101AA0008DF81F4000F0C0FC029402230493012231
:101AB0000592069301A902A800F0E8FD044601285A
:101AC0001CD0002665F0FF0233460E49022000F0CC
:101AD000FDFC8DF81F0032464FF480410A4800F0AB
:101AE00006FF2A469DF81F100848FFF7F1FC012168
:101AF0000DF11F00FFF7BCFD00F0AEFC204608B062
:101B000070BD00BF008000080004024010380008CB
:101B1000F0B583B000238DF80730304B1B78012BD4
:101B20001ED02F4D012B1DD0012739462D48FFF720
:101B3000CFFC88238DF8063001210DF10600FFF758
:101B400097FD264B197801290ED00320012900D0DA
:101B50000221FFF77FFE01462348FFF7B9FC24E08E
:101B6000224DDFE70227E0E70520EFE74FF0FF33E4
:101B7000611C1F4801F077FBA67932462946E01D1B
:101B8000FFF7E6FE8DF8070000224FF48041194868
:101B900000F0ADFE9DF807101748FFF799FC0121F2
:101BA0000DF10700FFF764FD3544144CC8220021F5
:101BB0002046FEF773FB4FF0FF33012221460C480D
:101BC00001F051FB2278FA2AD0D10D48FFF780FCB2
:101BD0003846FFF761FF03B0F0BD00BFC40000202E
:101BE00000C0000838380008F43600080000020879
:101BF000E001002000040240C0370008C8000020B7
:101C00007438000808B50648FFF762FCFFF780FF4C
:101C100041F2883000F0C8FA0248FFF759FC08BDCD
:101C200098380008C4380008014B1878704700BF86
:101C30000080000808B5FFF7F7FF0146034B187056
:101C40000348FFF745FCFFF787FC08BDC4000020F0
:101C5000F438000870B582B0134D2C78033C2E592F
:101C60001248FFF735FC324621462846FFF7DEFCD6
:101C7000A0B90F48FFF72CFC0120FFF7C3FCFFF7CA
:101C8000D3FF01468DF807000A48FFF721FC012128
:101C90000DF10700FFF7ECFC02B070BD0648FFF73E
:101CA00017FCFFF79DFCF7E7C80000201839000873
:101CB0005C35000850390008A435000838B502E04A
:101CC0002F48FFF709FD2E4CC82200212046FEF7C1
:101CD000E5FA2C4D4FF0FF3301222146284601F052
:101CE000C2FA21464FF0FF3311F8012B284601F0CC
:101CF000BAFA61782448FFF7EBFB6378513B0F2B6E
:101D00003AD801A252F823F0C11C0008491D00086E
:101D1000511D0008591D0008791D0008611D0008AB
:101D2000691D0008C71C0008791D0008791D0008FE
:101D3000791D0008C71C0008791D0008791D0008DE
:101D4000791D0008711D00080D48FFF79DFCBAE7DA
:101D50000B48FFF7FDFCB6E70948FFF737FDB2E790
:101D60000748FFF7A1FDAEE70548FFF72FFEAAE7FA
:101D70000348FFF76FFFA6E70448FFF7A9FBA2E7B8
:101D8000C8000020E0010020743900089C390008D8
:101D900008B5FFF791FB50B10A48FFF799FBFFF731
:101DA000B3FB50B1FFF72EFFFFF744FF08BD064815
:101DB000FFF78EFBFFF73EFFF8E70448FFF788FBCD
:101DC000FFF77CFFFC390008D4390008243A0008EA
:101DD00072B6FEE708B50448044B036000F056FAFB
:101DE00000B908BDFFF7F4FF900100200030024069
:101DF00008B50A480A4B03604FF4E13343600023FF
:101E00008360C36003610C2242618361C36101F09E
:101E100094F900B908BDFFF7DBFF00BF980100206F
:101E20000010014008B50A480A4B03604FF4E13343
:101E3000436000238360C36003610C2242618361BD
:101E4000C36101F07AF900B908BDFFF7C1FF00BF17
:101E5000E00100200044004000B595B03022002190
:101E600008A8FEF71BFA0023039304930593069337
:101E700007930193194A116C41F080511164126C5F
:101E800002F080520192019A029315490A6822F4E5
:101E9000404242F400420A600A6802F44042029260
:101EA000029A0222089201220B9210220C920E93A7
:101EB00008A800F023FD68B90F23039300210491C3
:101EC00005910691079103A800F066FF20B915B0AF
:101ED0005DF804FBFFF77CFFFFF77AFF0038024054
:101EE0000070004000B585B000F032F9FFF7B4FF94
:101EF000FFF79AFAFFF76EFFFFF77AFFFFF792FFFF
:101F0000134BEC460FCBACE807008CF80030114CBB
:101F10004FF0FF330C226946204601F03EF94FF4A2
:101F2000FA7000F041F90C48FFF7D2FA4FF0FF3396
:101F30000C226946204601F030F9FFF775FE014694
:101F4000064B18700648FFF7C3FAFFF721FFFEE7BC
:101F50006C3A000898010020503A0008C4000020A4
:101F6000F438000882B0002100910B4B5A6C42F407
:101F700080425A645A6C02F480420092009A0191A5
:101F80001A6C42F080521A641B6C03F08053019368
:101F9000019B02B0704700BF003802400268094B45
:101FA0009A4200D0704782B000230193064B1A6B0F
:101FB00042F480521A631B6B03F480530193019B1C
:101FC00002B07047003002400038024000B58BB0CC
:101FD0000023059306930793089309930368284AFF
:101FE000934205D0274A934226D00BB05DF804FBFC
:101FF00000210191244B5A6C42F010025A645A6C31
:1020000002F010020192019A02911A6B42F0010251
:102010001A631B6B03F001030293029B4FF4C0632E
:10202000059302230693032308930723099305A925
:10203000164800F075FBD8E700210391124B1A6C8B
:1020400042F400321A641A6C02F400320392039ACA
:1020500004911A6B42F001021A631B6B03F0010337
:102060000493049B0C2305930223069303230893F4
:102070000723099305A9054800F052FBB5E700BF07
:1020800000100140004400400038024000000240BF
:10209000FEE7FEE7FEE7FEE7FEE7704770477047A2
:1020A00008B500F06FF808BD10B503460C4A0D499D
:1020B0000D48006840B10C4800680344521A93422E
:1020C00006D8094A136010BD0748084C0460F2E7BF
:1020D000FEF7BAF80C2303604FF0FF30F3E700BFC0
:1020E000000001200004000028020020300200202F
:1020F000034AD2F8883043F47003C2F8883070473E
:1021000000ED00E010B504460E4B18784FF47A73DA
:10211000B3FBF0F30C4A1068B0FBF3F000F0A2F848
:1021200068B90F2C01D901200AE0002221464FF0A6
:10213000FF3000F05FF8054B1C60002000E001203C
:1021400010BD00BF74000020700000207800002047
:1021500008B50B4B1A6842F400721A601A6842F410
:1021600080621A601A6842F480721A60032000F0DC
:102170002FF80F20FFF7C6FFFFF7F4FE002008BD81
:10218000003C0240034A1168034B1B780B44136068
:10219000704700BF2C02002074000020014B18681B
:1021A000704700BF2C02002038B50446FFF7F6FF49
:1021B0000546B4F1FF3F02D0044B1B781C44FFF7E7
:1021C000EDFF401BA042FAD338BD00BF74000020D1
:1021D000074AD36823F4E0631B041B0C000200F4DD
:1021E000E060034343F0BF6343F40033D3607047C0
:1021F00000ED00E000B5194BDB68C3F30223C3F127
:10220000070CBCF1040F28BF4FF0040C03F1040EBF
:10221000BEF1060F18D9033B4FF0FF3E0EFA0CFC3F
:1022200021EA0C0199400EFA03F322EA0303194351
:1022300000280BDB0901C9B200F1604000F56140E4
:1022400080F800135DF804FB0023E5E700F00F00C1
:102250000901C9B2024B1954F4E700BF00ED00E0D8
:1022600014ED00E00138B0F1807F0BD24FF0E02395
:102270005861054AF02182F8231000209861072256
:102280001A6170470120704700ED00E058B110B5A9
:10229000044643791BB101236371002010BD037113
:1022A000FFF77CFEF7E70120704784460223437165
:1022B0000023934211D210B4DCF8000051F82340FF
:1022C000046001339342F7D3DCF80030186801232F
:1022D0008CF805305DF8044B7047036818680123DB
:1022E0008CF805307047000010B40A490C6924F4DA
:1022F00040740C610C6944F440740C610C6944F046
:1023000001040C610260BFF36F8F43605DF8044B02
:10231000704700BF003C0240074B1A6922F440722C
:102320001A611A6942F400721A611A6942F00102D4
:102330001A610160704700BF003C0240074B1A69F8
:1023400022F440721A611A6942F480721A611A69A1
:1023500042F001021A610180704700BF003C024058
:10236000064B1A6922F440721A611A691A611A69D5
:1023700042F001021A610170704700BF003C024048
:10238000274BDB6813F0100F07D0264AD36943F0C0
:102390001003D361224B1022DA60214BDB6813F06B
:1023A000200F07D01F4AD36943F00803D3611C4BA9
:1023B0002022DA601A4BDB6813F0400F07D0194A6D
:1023C000D36943F00403D361154B4022DA60144B08
:1023D000DB6813F0800F07D0124AD36943F0020381
:1023E000D3610F4B8022DA600D4BDB6813F4807FE2
:1023F00008D00C4AD36943F00103D361084B4FF472
:102400008072DA60064BDB6813F0020F07D0054AD2
:10241000D36943F02003D361014B0222DA60704795
:10242000003C02407C000020094B1B69002B01DBB3
:1024300000207047064B074A5A6002F188325A6002
:102440001B69002B01DB002070470120704700BF93
:10245000003C024023016745034A136943F00043EF
:1024600013610020704700BF003C024038B50446AD
:10247000144B0022DA61FFF791FE0546124BDB6830
:1024800013F4803F0AD0B4F1FF3FF7D024B1FFF737
:1024900085FE401BA042F1D903200DE00A4BDB680A
:1024A00013F0010F02D0084B0122DA60064BDB6803
:1024B00013F4F97F01D1002038BDFFF761FF01203F
:1024C000FAE700BF7C000020003C0240F8B5164649
:1024D0001B4A127E012A30D004460D461F46184B77
:1024E00001221A764CF25030FFF7C0FF90B9ACB120
:1024F000012C18D0022C1BD032463B462846FFF751
:10250000F3FE4CF25030FFF7B1FF0E4A136923F08F
:10251000010313610A4B00221A76F8BDF1B2284676
:10252000FFF71EFFEDE7B1B22846FFF707FFE8E728
:1025300031462846FFF7F0FEE3E70220EDE700BF53
:102540007C000020003C0240074B196921F44071D7
:102550001961196941F0040119611A6942EA0022FE
:1025600042F480321A617047003C0240024B5869C5
:1025700000F0E000704700BF003C0240014BD88AE9
:1025800080B27047003C0240054B587DC0B2CC2859
:1025900004D0587DC0B2AA2800D05520704700BF93
:1025A000003C0240024B187D00F00C00704700BF59
:1025B000003C024010B504460F230360FFF7DEFF26
:1025C000A060FFF7E1FF2061FFF7D0FF2076FFF763
:1025D000E9FF606110BD000049B1012921D0022945
:1025E00002D04FF4407C04E04FF4007C01E04FF057
:1025F000000C0D4B196921F4407119611A6942EA06
:102600000C021A611A6922F0F8021A611A6942EA88
:10261000C00040F0020018611A6942F480321A6169
:1026200070474FF4807CE4E7003C0240164B1B6887
:1026300013F4007F10D0144B1A6822F400721A6051
:102640001A6842F400621A601A6822F400621A6082
:102650001A6842F400721A600B4B1B6813F4806F07
:1026600010D0094B1A6822F480621A601A6842F48A
:1026700080521A601A6822F480521A601A6842F472
:1026800080621A60704700BF003C0240F8B5224BE0
:102690001B7E012B3ED004460E461F4B01221A76AC
:1026A0004CF25030FFF7E2FE074670BB4FF0FF33AD
:1026B00033602368012B16D0A568E368A268134431
:1026C000AB4220D9217C2846FFF786FF4CF25030E0
:1026D000FFF7CCFE114A136923F0FA031361074692
:1026E00080B90135E9E76168207CFFF72DFF4CF2E6
:1026F0005030FFF7BBFE0746084A136923F0040376
:10270000136100E03560FFF791FF034B00221A765A
:102710003846F8BD0227FBE77C000020003C024061
:1027200000230F2B00F2D28070B582B060E0856884
:102730005E000324B44025EA0405CC68B4402C4371
:102740008460456825EA02054C68C4F300129A408B
:102750002A4342605AE0DC08083450F8246003F051
:10276000070295000F22AA4026EA020E0A69AA4033
:1027700042EA0E0240F824205CE0042200E000223D
:1027800002FA0EF22A430234514D45F82420514AF0
:1027900094686FEA0C0224EA0C054E6816F4801F58
:1027A00001D04CEA04054B4CA560E46802EA04053C
:1027B0004E6816F4001F01D04CEA0405454CE56054
:1027C000646802EA04054E6816F4003F01D04CEA42
:1027D0000405404C6560246822404D6815F4803F34
:1027E00001D04CEA04023B4C226001330F2B6BD822
:1027F00001229A400C6804EA020C32EA0404F4D183
:102800004C6804F00304013C012C90D94A6802F0A2
:102810000302032A09D0C4685D000322AA4024EA07
:1028200002048A68AA402243C2604A6802F0030296
:10283000022A90D004684FEA430E032202FA0EF2F5
:1028400024EA02044A6802F0030202FA0EF222436A
:1028500002604A6812F4403FC7D0002201921E4A2B
:10286000546C44F480445464526C02F480420192EB
:10287000019A9C08A51C164A52F8255003F0030241
:102880004FEA820E0F2202FA0EF225EA0205134ADF
:1028900090423FF474AF02F5806290420ED002F590
:1028A000806290420CD002F5806290420AD002F51C
:1028B000806290423FF461AF072261E701225FE747
:1028C00002225DE703225BE702B070BD704700BFE4
:1028D00000380140003C0140003802400000024046
:1028E0000369194201D001207047002070470AB1E6
:1028F000816170470904816170470000002800F081
:10290000E08170B582B00446036813F0010F3BD03C
:102910009F4B9B6803F00C03042B2CD09C4B9B68B3
:1029200003F00C03082B21D06368B3F5803F4FD030
:10293000B3F5A02F52D0964B1A6822F480321A6059
:102940001A6822F480221A606368002B50D0FFF7C7
:1029500025FC05468E4B1B6813F4003F14D1FFF78E
:102960001DFC401B6428F5D90320B1E1884B5B684E
:1029700013F4800FD8D0864B1B6813F4003F03D0AC
:102980006368002B00F09F81236813F0020F54D07E
:102990007F4B9B6813F00C0F3ED07D4B9B6803F080
:1029A0000C03082B33D0E368002B68D0794B01224D
:1029B0001A60FFF7F3FB0546754B1B6813F0020F17
:1029C00054D1FFF7EBFB401B0228F5D903207FE130
:1029D0006F4A136843F480331360B5E76C4B1A6891
:1029E00042F480221A601A6842F480321A60ABE71F
:1029F000FFF7D4FB0546664B1B6813F4003FC3D0BA
:102A0000FFF7CCFB401B6428F5D9032060E1604B45
:102A10005B6813F4800FC6D15D4B1B6813F0020F87
:102A200003D0E368012B40F05081594A136823F02A
:102A3000F803216943EAC1031360236813F0080F08
:102A400042D063696BB3534B0122C3F8802EFFF76A
:102A5000A5FB05464E4B5B6F13F0020F34D1FFF719
:102A60009DFB401B0228F5D9032031E1484A136839
:102A700023F0F803216943EAC1031360DDE7454B06
:102A800000221A60FFF78AFB0546414B1B6813F0D2
:102A9000020FD2D0FFF782FB401B0228F5D903209A
:102AA00016E13C4B0022C3F8802EFFF777FB05466A
:102AB000374B5B6F13F0020F06D0FFF76FFB401B25
:102AC0000228F5D9032003E1236813F0040F77D01F
:102AD0002F4B1B6C13F0805F33D1002301932C4BE1
:102AE0001A6C42F080521A641B6C03F080530193FD
:102AF000019B0125284B1B6813F4807F23D0A3681A
:102B0000012B34D0052B38D0214B1A6F22F0010253
:102B10001A671A6F22F004021A67A368002B3DD0CF
:102B2000FFF73CFB06461A4B1B6F13F0020F46D112
:102B3000FFF734FB801B41F288339842F3D903201E
:102B4000C6E00025D6E7144A136843F48073136087
:102B5000FFF724FB0646104B1B6813F4807FCED191
:102B6000FFF71CFB801B0228F5D90320B0E0084AC0
:102B7000136F43F001031367CFE7054B1A6F42F061
:102B800004021A671A6F42F001021A67C5E700BF14
:102B9000003802400000474200700040FFF7FEFA94
:102BA0000646524B1B6F13F0020F08D0FFF7F6FAE0
:102BB000801B41F288339842F3D9032088E0EDB9B5
:102BC000A369002B00F08380484A926802F00C024F
:102BD000082A51D0022B17D0454B00221A66FFF766
:102BE000DDFA0446414B1B6813F0007F42D0FFF72B
:102BF000D5FA001B0228F5D9032069E03B4A136C83
:102C000023F080531364DBE7394B00221A66FFF789
:102C1000C5FA0546354B1B6813F0007F06D0FFF759
:102C2000BDFA401B0228F5D9032051E0E369226A6E
:102C30001343626A43EA8213A26A5208013A43EAE2
:102C40000243E26A43EA0263284A5360284B0122A6
:102C50001A66FFF7A3FA0446244B1B6813F0007FA3
:102C600006D1FFF79BFA001B0228F5D903202FE0BD
:102C700000202DE000202BE0012B2BD01B4B5B68AC
:102C800003F48001E269914226D103F03F02216AF8
:102C90008A4223D1616A47F6C0721A40B2EB811FA3
:102CA0001ED103F44031A26A5208013AB1EB024F3F
:102CB00018D103F07063E26AB3EB026F14D1002005
:102CC00006E001207047012002E0012000E0002022
:102CD00002B070BD0120FBE70120F9E70120F7E712
:102CE0000120F5E70120F3E70120F1E70038024079
:102CF0000000474208B5254B9B6803F00C03042BEA
:102D00003FD0082B3FD1214B5A6802F03F025B684D
:102D100013F4800F12D01D4B5968C1F388111C4861
:102D20000023A1FB0001FEF7FDF9184B5B68C3F31C
:102D3000014301335B00B0FBF3F025E0134B59680E
:102D4000C1F3881C4FEA4C11B1EB0C006EEB0E0E78
:102D50004FEA8E1343EA90638101091A63EB0E0375
:102D6000DB0043EA5173C90011EB0C0C43F1000383
:102D7000990200234FEA8C2041EA9C51FEF7D2F9D8
:102D8000D3E7034800E0034808BD00BF0038024015
:102D900040787D010024F400002800F09B8070B58D
:102DA0000D4604464F4B1B6803F007038B4208D2C5
:102DB000CBB24C4A1370136803F007038B4240F008
:102DC0008B80236813F0020F17D013F0040F04D088
:102DD000454A936843F4E0539360236813F0080F67
:102DE00004D0414A936843F4604393603E4A936839
:102DF00023F0F003A1680B439360236813F0010FE5
:102E000032D06368012B21D09A1E012A25D9364A77
:102E1000126812F0020F61D033498A6822F003026F
:102E200013438B60FFF7BAF906462F4B9B6803F0FC
:102E30000C036268B3EB820F16D0FFF7AFF9801B6B
:102E400041F288339842F0D9032042E0264A1268C2
:102E500012F4003FE0D101203BE0234A126812F057
:102E6000007FD9D1012034E01E4B1B6803F007031B
:102E7000AB4207D9EAB21B4B1A701B6803F0070379
:102E8000AB422DD1236813F0040F06D0164A936885
:102E900023F4E053E1680B439360236813F0080FB9
:102EA00007D0114A936823F46043216943EAC103C0
:102EB0009360FFF71FFF0C4B9B68C3F303130B4A90
:102EC000D35CD8400A4B18600A4B1868FFF71AF910
:102ED000002070BD012070470120FAE70120F8E7CB
:102EE0000120F6E7003C0240003802407C3A00082E
:102EF0007000002078000020014B1868704700BF68
:102F00007000002008B5FFF7F7FF044B9B68C3F380
:102F10008223034AD35CD84008BD00BF003802407A
:102F20008C3A000808B5FFF7E7FF044B9B68C3F332
:102F30004233034AD35CD84008BD00BF003802408A
:102F40008C3A0008026802F10C0353E8003F23F4B6
:102F500090730C3242E800310029F3D1026802F18B
:102F6000140353E8003F23F00103143242E8003118
:102F70000029F3D1036B012B05D0202380F84230C8
:102F8000002303637047026802F10C0353E8003F1B
:102F900023F010030C3242E800310029F3D1ECE7B2
:102FA00038B504460268136923F44053C1680B43E3
:102FB000136183680269134342691343C2691A4368
:102FC0000168CB6823F4164323F00C031343CB6052
:102FD0000268536923F4407381690B4353610368AA
:102FE000314A934206D002F58062934202D0FFF745
:102FF00089FF01E0FFF796FFE369B3F5004F29D0A1
:103000000021031849411B1841F10001C90041EAA0
:103010005371DB00181863684FEA83024FEA937319
:1030200041F10001FEF77EF8204DA5FB0032510969
:10303000642303FB11031B013233A5FB03235B094C
:1030400003F0F00202EB011203F00F0321681344B6
:103050008B6038BD0023021843EB0301121841F1C5
:103060000001C90041EA5271D200101841F100017B
:10307000626892185B41FEF755F80C4DA5FB0032D3
:103080005109642303FB1103DB003233A5FB032347
:103090005B095A0002F4F87202EB011203F0070315
:1030A000216813448B60D4E7001001401F85EB5169
:1030B0002DE9F04383B005460E4617469946DDF8E4
:1030C00028802C68246836EA04030CBF4FF0010CFA
:1030D0004FF0000CBC4528D1B8F1FF3FF1D0FFF70D
:1030E0005DF8A0EB0900404523D8B8F1000F22D0CD
:1030F0002B68DA6812F0040FE3D0802EE1D0402E66
:10310000DFD01A6812F0080FDBD0002401941A688F
:1031100001925B680193019B2846FFF713FF082388
:103120006B6485F84040012000E0002003B0BDE85A
:10313000F0830320FAE70320F8E760B310B50446F4
:1031400090F8413013B3242384F841302268D368C7
:1031500023F40053D3602046FFF722FF226813694F
:1031600023F4904313612268536923F02A035361C7
:103170002268D36843F40053D360002060642023A6
:1031800084F8413084F84230606310BD80F84030EC
:10319000FEF71CFFD7E7012070472DE9F04182B010
:1031A0001E4690F84130DBB2202B56D104460D4626
:1031B0009046002955D00AB901204FE0002343640E
:1031C000212380F84130FEF7E9FF0746A4F8248068
:1031D000A4F82680A368B3F5805F02D04FF0000802
:1031E00014E023692BB34FF000080FE0202384F88C
:1031F0004130032032E038F8023B2268C3F3080371
:103200005360E28C92B2013A92B2E284E38C9BB2B8
:1032100093B100963B46002280212046FFF748FFED
:103220000028E3D1002DE6D015F8012B23685A6061
:10323000E7E7A8460025E9E700963B460022402143
:103240002046FFF735FF18B9202384F8413005E008
:10325000202384F84130032000E0022002B0BDE8C2
:10326000F0810120FAE72DE9F04182B01E4690F886
:103270004230DBB2202B59D104460D46904600293E
:1032800058D00AB9012052E000234364222280F87A
:1032900042200363FEF782FF0746A4F82C80A4F8BF
:1032A0002E80A368B3F5805F02D04FF000081CE0C9
:1032B000236913B14FF0000817E0A846002514E079
:1032C000202384F84230032031E023685B68C3F395
:1032D000080328F8023B03E023685B682B70013584
:1032E000E28D92B2013A92B2E285E38D9BB2C3B114
:1032F00000963B46002220212046FFF7D9FE0028F9
:10330000DED1002DE1D0A368B3F5805FE4D013B91E
:103310002369002BE0D023685B6803F07F032B70E8
:10332000DDE7202384F84230002000E0022002B0D4
:10333000BDE8F0810120FAE7DFF834D0FEF7D8FECF
:103340000C480D490D4A002302E0D458C450043300
:10335000C4188C42F9D30A4A0A4C002301E01360D6
:103360000432A242FBD3FCF775FFFEF7BBFD7047AA
:1033700000000120000000209C000020E03A00082E
:103380009C00002030020020FEE70000F8B500BFDE
:10339000F8BC08BC9E467047F8B500BFF8BC08BC36
:0433A0009E4670478E
:1033A400424C5F44454255475F4D53473A20576F5F
:1033B400756C6420796F75206C696B6520746F205F
:1033C40075706461746520746865206669726D77D0
:1033D4006172653F2028592F4E293A200A0D0000BA
:1033E400424C5F44454255475F4D53473A204E6F28
:1033F40020526573706F6E736520526563656976DC
:1034040065640A0D00000000424C5F444542554784
:103414005F4D53473A20626F6F746C6F61646572DD
:103424005F6A756D705F746F5F757365725F6170ED
:10343400700A0D00424C5F44454255475F4D534767
:103444003A204669726D776172652042616E6B2025
:1034540031204163746976652E200A0D0000000056
:10346400424C5F44454255475F4D53473A204669B5
:10347400726D776172652042616E6B203220416308
:10348400746976652E200A0D00000000424C5F44EA
:10349400454255475F4D53473A204669726D7761FF
:1034A40072652042616E6B204572726F7221200A30
:1034B4000D000000424C5F44454255475F4D534761
:1034C4003A626F6F746C6F616465725F68616E6499
:1034D4006C655F67657468656C705F636D640A0D25
:1034E40000000000424C5F44454255475F4D53473E
:1034F4003A636865636B73756D2073756363657395
:10350400732021210A0D0000424C5F444542554777
:103514005F4D53473A636865636B73756D206661ED
:10352400696C2021210A0D00424C5F4445425547F5
:103534005F4D53473A20626F6F746C6F61646572BC
:103544005F68616E646C655F6765747665725F63FE
:103554006D640A0D00000000424C5F44454255472B
:103564005F4D53473A20436865636B73756D2073F1
:103574007563636573732E2E2E210A0D00000000FF
:10358400424C5F44454255475F4D53473A20424CB5
:103594005F5645523A202564202C25780A0D0000F8
:1035A400424C5F44454255475F4D53473A20436878
:1035B40065636B73756D206661696C65642E2E2E70
:1035C400210A0D00424C5F44454255475F4D534725
:1035D4003A626F6F746C6F616465725F68616E6488
:1035E4006C655F6765746369645F636D640A0D008D
:1035F400424C5F44454255475F4D53473A4D43550E
:10360400206964203A202564202523782021210A7A
:103614000D000000424C5F44454255475F4D5347FF
:103624003A626F6F746C6F616465725F68616E6437
:103634006C655F6765747264705F636D640A0D0026
:10364400424C5F44454255475F4D53473A524450BC
:10365400206C6576656C3A202564202523780A0D54
:1036640000000000424C5F44454255475F4D5347BC
:103674003A20626F6F746C6F616465725F68616E2B
:10368400646C655F666C6173685F65726173655FC6
:10369400636D640A0D000000424C5F444542554787
:1036A4005F4D53473A2043524320636865636B2060
:1036B400737563636573732E0A0D0000424C5F4497
:1036C400454255475F4D53473A20536563746F72C3
:1036D4003D256C6420204E756D626572206F6620F6
:1036E400536563746F72733D256C640A0D000000AA
:1036F400424C5F44454255475F4D53473A20666C00
:103704006173682065726173652073746174757385
:103714003A202523780A0D00424C5F444542554720
:103724005F4D53473A2043524320636865636B20DF
:103734006661696C6564210A0D000000424C5F44B7
:10374400454255475F4D53473A626F6F746C6F61E2
:103754006465725F68616E646C655F6D656D5F77EB
:10376400726974655F636D640A0D0000424C5F44C6
:10377400454255475F4D53473A206D656D2077723A
:103784006974652061646472657373203A2025232B
:10379400780A0D00424C5F44454255475F4D5347FC
:1037A4003A2076616C6964206D656D207772697466
:1037B4006520616464726573730A0D00424C5F4452
:1037C400454255475F4D53473A2057726974652007
:1037D400537461747573203A2025780A0D00000033
:1037E400424C5F44454255475F4D53473A20696E0A
:1037F40076616C6964206D656D20777269746520EB
:10380400616464726573730A0D000000424C5F4486
:10381400454255475F4D53473A20577269746520B6
:10382400537461747573203A202578202025640A26
:103834000D000000424C5F44454255475F4D5347DD
:103844003A20446F776E6C6F6164696E67206269B9
:103854006E617269657320746F20696E6163746947
:1038640076652062616E6B3A202564200A0D0000A3
:10387400424C5F44454255475F4D53473A20446F9D
:10388400776E6C6F616420436F6D706C6574652135
:10389400200A0D00424C5F44454255475F4D534753
:1038A4003A205374617274696E67206669726D7729
:1038B4006172652055706772616465200A0D0000AD
:1038C400424C5F44454255475F4D53473A204A7541
:1038D4006D70696E6720546F205573657220417056
:1038E400706C69636174696F6E200A0D00000000DA
:1038F400424C5F44454255475F4D53473A2041632C
:10390400746976652042616E6B3A202564200A0D45
:1039140000000000424C5F44454255475F4D534709
:103924003A20626F6F746C6F616465725F68616E78
:10393400646C655F73686F775F6163746976655FF4
:1039440062616E6B5F636D640A0D0000424C5F44FC
:10395400454255475F4D53473A2041637469766544
:103964002042616E6B203A202564200A0D0000007D
:10397400424C5F44454255475F4D53473A20526598
:1039840063656976656420434D443A203078253078
:1039940032580D0A00000000424C5F44454255472E
:1039A4005F4D53473A496E76616C696420636F6D6D
:1039B4006D616E6420636F6465207265636569760A
:1039C40065642066726F6D20686F7374200A0D0041
:1039D400424C5F44454255475F4D53473A204E6F32
:1039E400726D616C20426F6F742053656C656374F3
:1039F40065640A0D00000000424C5F44454255478F
:103A04005F4D53473A20426F6F746C6F6164657207
:103A1400204D6F646520456E74657265640A0D00FF
:103A2400424C5F44454255475F4D53473A20456EEB
:103A3400746572696E6720436F6D6D616E642049B1
:103A44006E746572666163650A0D0000424C5F44E2
:103A5400454255475F4D53473A20554152542054EF
:103A64006573740A0D0000005541525420414C49BD
:103A740056450D0A00000000000000000000000090
:103A84000102030406070809000000000102030400
:103A9400232D302B20000000686C4C0065666745C0
:103AA40046470000303132333435363738394142F5
:103AB4004344454600000000303132333435363754
:0C3AC40038396162636465660000000030
:083AD00084D6FF7F0100000015
:043AD80029020008B7
:043ADC0001020008DB
:103AE00004000020000000000000000000000000B2
:103AF00000000000000000000000000000000000C6
:103B000000000000000000000000000000000000B5
:103B100000000000000000000000000000000000A5
:103B20000000000000000000000000000000000095
:103B30000000000000000000000000000000000085
:103B400000000000515253545556575A600000006F
:103B50000024F4000100000010000000000000003C
:103B60000000000000000000000000000100000054
:0C3B700000000000000000000000000049
:040000050800333983
:00000001FF
